{
  "contractName": "ticketingSystem",
  "abi": [
    {
      "constant": true,
      "inputs": [
        {
          "name": "",
          "type": "uint256"
        }
      ],
      "name": "ticketsRegister",
      "outputs": [
        {
          "name": "owner",
          "type": "address"
        },
        {
          "name": "isAvailable",
          "type": "bool"
        },
        {
          "name": "concertId",
          "type": "uint256"
        },
        {
          "name": "isAvailableForSale",
          "type": "bool"
        },
        {
          "name": "amountPaid",
          "type": "uint256"
        },
        {
          "name": "salePrice",
          "type": "uint256"
        }
      ],
      "payable": false,
      "stateMutability": "view",
      "type": "function"
    },
    {
      "constant": true,
      "inputs": [
        {
          "name": "",
          "type": "uint256"
        }
      ],
      "name": "artistsRegister",
      "outputs": [
        {
          "name": "name",
          "type": "bytes32"
        },
        {
          "name": "artistCategory",
          "type": "uint256"
        },
        {
          "name": "owner",
          "type": "address"
        },
        {
          "name": "totalTicketSold",
          "type": "uint256"
        }
      ],
      "payable": false,
      "stateMutability": "view",
      "type": "function"
    },
    {
      "constant": true,
      "inputs": [
        {
          "name": "",
          "type": "uint256"
        }
      ],
      "name": "venuesRegister",
      "outputs": [
        {
          "name": "name",
          "type": "bytes32"
        },
        {
          "name": "capacity",
          "type": "uint256"
        },
        {
          "name": "standardComission",
          "type": "uint256"
        },
        {
          "name": "owner",
          "type": "address"
        }
      ],
      "payable": false,
      "stateMutability": "view",
      "type": "function"
    },
    {
      "constant": true,
      "inputs": [
        {
          "name": "",
          "type": "uint256"
        }
      ],
      "name": "concertsRegister",
      "outputs": [
        {
          "name": "artistId",
          "type": "uint256"
        },
        {
          "name": "venueId",
          "type": "uint256"
        },
        {
          "name": "concertDate",
          "type": "uint256"
        },
        {
          "name": "nbrTickets",
          "type": "uint256"
        },
        {
          "name": "concertPrice",
          "type": "uint256"
        },
        {
          "name": "owner",
          "type": "address"
        },
        {
          "name": "validatedByArtist",
          "type": "bool"
        },
        {
          "name": "validatedByVenue",
          "type": "bool"
        },
        {
          "name": "totalSoldTicket",
          "type": "uint256"
        },
        {
          "name": "totalMoneyCollected",
          "type": "uint256"
        }
      ],
      "payable": false,
      "stateMutability": "view",
      "type": "function"
    },
    {
      "inputs": [],
      "payable": false,
      "stateMutability": "nonpayable",
      "type": "constructor"
    },
    {
      "constant": false,
      "inputs": [
        {
          "name": "_name",
          "type": "bytes32"
        },
        {
          "name": "_artistCategory",
          "type": "uint256"
        }
      ],
      "name": "createArtist",
      "outputs": [],
      "payable": false,
      "stateMutability": "nonpayable",
      "type": "function"
    },
    {
      "constant": false,
      "inputs": [
        {
          "name": "_idArtist",
          "type": "uint256"
        },
        {
          "name": "_name",
          "type": "bytes32"
        },
        {
          "name": "_artistCategory",
          "type": "uint256"
        },
        {
          "name": "_owner",
          "type": "address"
        }
      ],
      "name": "modifyArtist",
      "outputs": [],
      "payable": false,
      "stateMutability": "nonpayable",
      "type": "function"
    },
    {
      "constant": false,
      "inputs": [
        {
          "name": "_name",
          "type": "bytes32"
        },
        {
          "name": "_capacity",
          "type": "uint256"
        },
        {
          "name": "_standardComission",
          "type": "uint256"
        }
      ],
      "name": "createVenue",
      "outputs": [],
      "payable": false,
      "stateMutability": "nonpayable",
      "type": "function"
    },
    {
      "constant": false,
      "inputs": [
        {
          "name": "_idVenue",
          "type": "uint256"
        },
        {
          "name": "_name",
          "type": "bytes32"
        },
        {
          "name": "_capacity",
          "type": "uint256"
        },
        {
          "name": "_standardComission",
          "type": "uint256"
        },
        {
          "name": "_owner",
          "type": "address"
        }
      ],
      "name": "modifyVenue",
      "outputs": [],
      "payable": false,
      "stateMutability": "nonpayable",
      "type": "function"
    },
    {
      "constant": false,
      "inputs": [
        {
          "name": "_artistId",
          "type": "uint256"
        },
        {
          "name": "_venueId",
          "type": "uint256"
        },
        {
          "name": "_concertDate",
          "type": "uint256"
        },
        {
          "name": "_concertPrice",
          "type": "uint256"
        }
      ],
      "name": "createConcert",
      "outputs": [
        {
          "name": "concertNumber",
          "type": "uint256"
        }
      ],
      "payable": false,
      "stateMutability": "nonpayable",
      "type": "function"
    },
    {
      "constant": false,
      "inputs": [
        {
          "name": "_concertId",
          "type": "uint256"
        }
      ],
      "name": "validateConcert",
      "outputs": [],
      "payable": false,
      "stateMutability": "nonpayable",
      "type": "function"
    },
    {
      "constant": false,
      "inputs": [
        {
          "name": "_concertId",
          "type": "uint256"
        },
        {
          "name": "_ticketOwner",
          "type": "address"
        }
      ],
      "name": "emitTicket",
      "outputs": [],
      "payable": false,
      "stateMutability": "nonpayable",
      "type": "function"
    },
    {
      "constant": false,
      "inputs": [
        {
          "name": "_ticketId",
          "type": "uint256"
        }
      ],
      "name": "useTicket",
      "outputs": [],
      "payable": false,
      "stateMutability": "nonpayable",
      "type": "function"
    },
    {
      "constant": false,
      "inputs": [
        {
          "name": "_concertId",
          "type": "uint256"
        }
      ],
      "name": "buyTicket",
      "outputs": [],
      "payable": true,
      "stateMutability": "payable",
      "type": "function"
    },
    {
      "constant": false,
      "inputs": [
        {
          "name": "_ticketId",
          "type": "uint256"
        },
        {
          "name": "_newOwner",
          "type": "address"
        }
      ],
      "name": "transferTicket",
      "outputs": [],
      "payable": false,
      "stateMutability": "nonpayable",
      "type": "function"
    },
    {
      "constant": false,
      "inputs": [
        {
          "name": "_concertId",
          "type": "uint256"
        },
        {
          "name": "_cashOutAddress",
          "type": "address"
        }
      ],
      "name": "cashOutConcert",
      "outputs": [],
      "payable": false,
      "stateMutability": "nonpayable",
      "type": "function"
    },
    {
      "constant": false,
      "inputs": [
        {
          "name": "_ticketId",
          "type": "uint256"
        },
        {
          "name": "_salePrice",
          "type": "uint256"
        }
      ],
      "name": "offerTicketForSale",
      "outputs": [],
      "payable": false,
      "stateMutability": "nonpayable",
      "type": "function"
    },
    {
      "constant": false,
      "inputs": [
        {
          "name": "_ticketId",
          "type": "uint256"
        }
      ],
      "name": "buySecondHandTicket",
      "outputs": [],
      "payable": true,
      "stateMutability": "payable",
      "type": "function"
    }
  ],
  "bytecode": "0x608060405234801561001057600080fd5b5060016000819055506001808190555060016002819055506001600381905550611afb8061003f6000396000f3fe6080604052600436106100f1576000357c0100000000000000000000000000000000000000000000000000000000900463ffffffff16806317606737146100f6578063266064481461013b578063486ff9ae1461017657806359cb327a146101d15780635dfe929114610220578063640c4909146102c6578063679ebf1a146102f457806367dd74ca1461034f57806388d658461461037d57806390b3b014146103f657806392fc3b081461046557806397af2930146104a0578063a88ae81514610530578063d6ecc2b1146105c0578063e03536f31461061b578063e62e4f8d14610688578063f02eafd1146106cd575b600080fd5b34801561010257600080fd5b506101396004803603604081101561011957600080fd5b81019080803590602001909291908035906020019092919050505061078f565b005b34801561014757600080fd5b506101746004803603602081101561015e57600080fd5b8101908080359060200190929190505050610872565b005b34801561018257600080fd5b506101cf6004803603604081101561019957600080fd5b8101908080359060200190929190803573ffffffffffffffffffffffffffffffffffffffff169060200190929190505050610a7b565b005b3480156101dd57600080fd5b5061021e600480360360608110156101f457600080fd5b81019080803590602001909291908035906020019092919080359060200190929190505050610c46565b005b34801561022c57600080fd5b506102596004803603602081101561024357600080fd5b8101908080359060200190929190505050610d0b565b604051808773ffffffffffffffffffffffffffffffffffffffff1673ffffffffffffffffffffffffffffffffffffffff1681526020018615151515815260200185815260200184151515158152602001838152602001828152602001965050505050505060405180910390f35b6102f2600480360360208110156102dc57600080fd5b8101908080359060200190929190505050610d81565b005b34801561030057600080fd5b5061034d6004803603604081101561031757600080fd5b8101908080359060200190929190803573ffffffffffffffffffffffffffffffffffffffff169060200190929190505050610f0b565b005b61037b6004803603602081101561036557600080fd5b8101908080359060200190929190505050610fd4565b005b34801561038957600080fd5b506103f4600480360360a08110156103a057600080fd5b8101908080359060200190929190803590602001909291908035906020019092919080359060200190929190803573ffffffffffffffffffffffffffffffffffffffff16906020019092919050505061114a565b005b34801561040257600080fd5b506104636004803603608081101561041957600080fd5b81019080803590602001909291908035906020019092919080359060200190929190803573ffffffffffffffffffffffffffffffffffffffff169060200190929190505050611267565b005b34801561047157600080fd5b5061049e6004803603602081101561048857600080fd5b8101908080359060200190929190505050611368565b005b3480156104ac57600080fd5b506104d9600480360360208110156104c357600080fd5b81019080803590602001909291905050506114f0565b604051808581526020018481526020018373ffffffffffffffffffffffffffffffffffffffff1673ffffffffffffffffffffffffffffffffffffffff16815260200182815260200194505050505060405180910390f35b34801561053c57600080fd5b506105696004803603602081101561055357600080fd5b8101908080359060200190929190505050611540565b604051808581526020018481526020018381526020018273ffffffffffffffffffffffffffffffffffffffff1673ffffffffffffffffffffffffffffffffffffffff16815260200194505050505060405180910390f35b3480156105cc57600080fd5b50610619600480360360408110156105e357600080fd5b8101908080359060200190929190803573ffffffffffffffffffffffffffffffffffffffff169060200190929190505050611590565b005b34801561062757600080fd5b506106726004803603608081101561063e57600080fd5b81019080803590602001909291908035906020019092919080359060200190929190803590602001909291905050506117d0565b6040518082815260200191505060405180910390f35b34801561069457600080fd5b506106cb600480360360408110156106ab57600080fd5b81019080803590602001909291908035906020019092919050505061199e565b005b3480156106d957600080fd5b50610706600480360360208110156106f057600080fd5b8101908080359060200190929190505050611a41565b604051808b81526020018a81526020018981526020018881526020018781526020018673ffffffffffffffffffffffffffffffffffffffff1673ffffffffffffffffffffffffffffffffffffffff16815260200185151515158152602001841515151581526020018381526020018281526020019a505050505050505050505060405180910390f35b6007600083815260200190815260200160002060000160009054906101000a900473ffffffffffffffffffffffffffffffffffffffff1673ffffffffffffffffffffffffffffffffffffffff163373ffffffffffffffffffffffffffffffffffffffff161415156107ff57600080fd5b8060076000848152602001908152602001600020600301541015151561082457600080fd5b60016007600084815260200190815260200160002060020160006101000a81548160ff0219169083151502179055508060076000848152602001908152602001600020600401819055505050565b6007600082815260200190815260200160002060000160009054906101000a900473ffffffffffffffffffffffffffffffffffffffff1673ffffffffffffffffffffffffffffffffffffffff163373ffffffffffffffffffffffffffffffffffffffff161415156108e257600080fd5b4260066000600760008581526020019081526020016000206001015481526020019081526020016000206002015411151561091c57600080fd5b62015180420160066000600760008581526020019081526020016000206001015481526020019081526020016000206002015410151561095b57600080fd5b60011515600660006007600085815260200190815260200160002060010154815260200190815260200160002060050160149054906101000a900460ff1615151415156109a757600080fd5b60011515600660006007600085815260200190815260200160002060010154815260200190815260200160002060050160159054906101000a900460ff1615151415156109f357600080fd5b60006007600083815260200190815260200160002060000160146101000a81548160ff02191690831515021790555060006007600083815260200190815260200160002060000160006101000a81548173ffffffffffffffffffffffffffffffffffffffff021916908373ffffffffffffffffffffffffffffffffffffffff16021790555050565b600460006006600085815260200190815260200160002060000154815260200190815260200160002060020160009054906101000a900473ffffffffffffffffffffffffffffffffffffffff1673ffffffffffffffffffffffffffffffffffffffff163373ffffffffffffffffffffffffffffffffffffffff16141515610b0157600080fd5b8160076000600354815260200190815260200160002060010181905550600160076000600354815260200190815260200160002060000160146101000a81548160ff0219169083151502179055508060076000600354815260200190815260200160002060000160006101000a81548173ffffffffffffffffffffffffffffffffffffffff021916908373ffffffffffffffffffffffffffffffffffffffff160217905550600160076000600354815260200190815260200160002060020160006101000a81548160ff02191690831515021790555060066000838152602001908152602001600020600401546007600060035481526020019081526020016000206003018190555060066000838152602001908152602001600020600601600081548092919060010191905055506003600081548092919060010191905055505050565b8260056000600154815260200190815260200160002060000181905550816005600060015481526020019081526020016000206001018190555080600560006001548152602001908152602001600020600201819055503360056000600154815260200190815260200160002060030160006101000a81548173ffffffffffffffffffffffffffffffffffffffff021916908373ffffffffffffffffffffffffffffffffffffffff160217905550600160008154809291906001019190505550505050565b60076020528060005260406000206000915090508060000160009054906101000a900473ffffffffffffffffffffffffffffffffffffffff16908060000160149054906101000a900460ff16908060010154908060020160009054906101000a900460ff16908060030154908060040154905086565b600115156007600083815260200190815260200160002060020160009054906101000a900460ff161515141515610db757600080fd5b600760008281526020019081526020016000206004015434141515610ddb57600080fd5b34600760008381526020019081526020016000206003015410151515610e0057600080fd5b600115156007600083815260200190815260200160002060000160149054906101000a900460ff161515141515610e3657600080fd5b6007600082815260200190815260200160002060000160009054906101000a900473ffffffffffffffffffffffffffffffffffffffff1673ffffffffffffffffffffffffffffffffffffffff166108fc349081150290604051600060405180830381858888f19350505050158015610eb2573d6000803e3d6000fd5b50336007600083815260200190815260200160002060000160006101000a81548173ffffffffffffffffffffffffffffffffffffffff021916908373ffffffffffffffffffffffffffffffffffffffff16021790555050565b6007600083815260200190815260200160002060000160009054906101000a900473ffffffffffffffffffffffffffffffffffffffff1673ffffffffffffffffffffffffffffffffffffffff163373ffffffffffffffffffffffffffffffffffffffff16141515610f7b57600080fd5b806007600084815260200190815260200160002060000160006101000a81548173ffffffffffffffffffffffffffffffffffffffff021916908373ffffffffffffffffffffffffffffffffffffffff1602179055505050565b600660008281526020019081526020016000206004015434141515610ff857600080fd5b60066000828152602001908152602001600020600601600081548092919060010191905055503460066000838152602001908152602001600020600701600082825401925050819055503360076000600354815260200190815260200160002060000160006101000a81548173ffffffffffffffffffffffffffffffffffffffff021916908373ffffffffffffffffffffffffffffffffffffffff16021790555034600760006003548152602001908152602001600020600301819055508060076000600354815260200190815260200160002060010181905550600160076000600354815260200190815260200160002060000160146101000a81548160ff021916908315150217905550600060076000600354815260200190815260200160002060020160006101000a81548160ff02191690831515021790555060036000815480929190600101919050555050565b3373ffffffffffffffffffffffffffffffffffffffff166005600087815260200190815260200160002060030160009054906101000a900473ffffffffffffffffffffffffffffffffffffffff1673ffffffffffffffffffffffffffffffffffffffff161415156111ba57600080fd5b836005600087815260200190815260200160002060000181905550826005600087815260200190815260200160002060010181905550816005600087815260200190815260200160002060020181905550806005600087815260200190815260200160002060030160006101000a81548173ffffffffffffffffffffffffffffffffffffffff021916908373ffffffffffffffffffffffffffffffffffffffff1602179055505050505050565b3373ffffffffffffffffffffffffffffffffffffffff166004600086815260200190815260200160002060020160009054906101000a900473ffffffffffffffffffffffffffffffffffffffff1673ffffffffffffffffffffffffffffffffffffffff161415156112d757600080fd5b826004600086815260200190815260200160002060000181905550816004600086815260200190815260200160002060010181905550806004600086815260200190815260200160002060020160006101000a81548173ffffffffffffffffffffffffffffffffffffffff021916908373ffffffffffffffffffffffffffffffffffffffff16021790555050505050565b4260066000838152602001908152602001600020600201541015151561138d57600080fd5b3373ffffffffffffffffffffffffffffffffffffffff16600560006006600085815260200190815260200160002060010154815260200190815260200160002060030160009054906101000a900473ffffffffffffffffffffffffffffffffffffffff1673ffffffffffffffffffffffffffffffffffffffff16141561143d5760016006600083815260200190815260200160002060050160156101000a81548160ff0219169083151502179055505b3373ffffffffffffffffffffffffffffffffffffffff16600460006006600085815260200190815260200160002060000154815260200190815260200160002060020160009054906101000a900473ffffffffffffffffffffffffffffffffffffffff1673ffffffffffffffffffffffffffffffffffffffff1614156114ed5760016006600083815260200190815260200160002060050160146101000a81548160ff0219169083151502179055505b50565b60046020528060005260406000206000915090508060000154908060010154908060020160009054906101000a900473ffffffffffffffffffffffffffffffffffffffff16908060030154905084565b60056020528060005260406000206000915090508060000154908060010154908060020154908060030160009054906101000a900473ffffffffffffffffffffffffffffffffffffffff16905084565b4260066000848152602001908152602001600020600201541015156115b457600080fd5b600460006006600085815260200190815260200160002060000154815260200190815260200160002060020160009054906101000a900473ffffffffffffffffffffffffffffffffffffffff1673ffffffffffffffffffffffffffffffffffffffff163373ffffffffffffffffffffffffffffffffffffffff1614151561163a57600080fd5b6000600660008481526020019081526020016000206004015460020290506000612710600560006006600088815260200190815260200160002060010154815260200190815260200160002060020154830281151561169557fe5b04905060008183039050600560006006600088815260200190815260200160002060010154815260200190815260200160002060030160009054906101000a900473ffffffffffffffffffffffffffffffffffffffff1673ffffffffffffffffffffffffffffffffffffffff166108fc839081150290604051600060405180830381858888f19350505050158015611731573d6000803e3d6000fd5b508373ffffffffffffffffffffffffffffffffffffffff166108fc829081150290604051600060405180830381858888f19350505050158015611778573d6000803e3d6000fd5b5060066000868152602001908152602001600020600601546004600060066000898152602001908152602001600020600001548152602001908152602001600020600301600082825401925050819055505050505050565b60004283101515156117e157600080fd5b600073ffffffffffffffffffffffffffffffffffffffff166004600087815260200190815260200160002060020160009054906101000a900473ffffffffffffffffffffffffffffffffffffffff1673ffffffffffffffffffffffffffffffffffffffff161415151561185357600080fd5b600073ffffffffffffffffffffffffffffffffffffffff166005600086815260200190815260200160002060030160009054906101000a900473ffffffffffffffffffffffffffffffffffffffff1673ffffffffffffffffffffffffffffffffffffffff16141515156118c557600080fd5b6000600660006002548152602001908152602001600020600601819055506000600660006002548152602001908152602001600020600701819055508260066000600254815260200190815260200160002060020181905550846006600060025481526020019081526020016000206000018190555083600660006002548152602001908152602001600020600101819055508160066000600254815260200190815260200160002060040181905550611980600254611368565b60025490506001600260008282540192505081905550949350505050565b816004600080548152602001908152602001600020600001819055508060046000805481526020019081526020016000206001018190555033600460008054815260200190815260200160002060020160006101000a81548173ffffffffffffffffffffffffffffffffffffffff021916908373ffffffffffffffffffffffffffffffffffffffff16021790555060008081548092919060010191905055505050565b60066020528060005260406000206000915090508060000154908060010154908060020154908060030154908060040154908060050160009054906101000a900473ffffffffffffffffffffffffffffffffffffffff16908060050160149054906101000a900460ff16908060050160159054906101000a900460ff1690806006015490806007015490508a56fea165627a7a7230582033cd781f45b2158126f5537c3c07690a9f0bff2669c771257bb422befd7b8c070029",
  "source": "pragma solidity ^0.5.0;\r\n\r\n\r\ncontract ticketingSystem {\r\n\r\n\tstruct Artist{\r\n\t\tbytes32 name;\r\n\t\tuint artistCategory;\r\n\t\taddress payable owner;\r\n\t\tuint totalTicketSold;\r\n\t}\r\n\r\n\tuint NextIdArtist;\r\n\tuint NextIdVenue;\r\n\tuint NextIdConcert;\r\n\tuint NextIdTicket;\r\n\r\n\tconstructor() public\r\n\t{\r\n\t NextIdArtist=1;\r\n\t NextIdVenue=1;\r\n\t NextIdConcert=1;\r\n\t NextIdTicket=1;\r\n\r\n\t}\r\n\r\n\r\n\r\n\t mapping  (uint => Artist) public artistsRegister;\r\n\r\n\r\n\r\n\tfunction createArtist(bytes32  _name, uint _artistCategory) public {\r\n\r\n\t\tartistsRegister[NextIdArtist].name=_name;\r\n\t\tartistsRegister[NextIdArtist].artistCategory=_artistCategory;\r\n\t\tartistsRegister[NextIdArtist].owner=msg.sender;\r\n\t\tNextIdArtist++;\r\n\t}\r\n\r\n\r\n\tfunction modifyArtist(uint _idArtist,bytes32 _name, uint _artistCategory, address payable _owner) public\r\n\t{\r\n\t\trequire(artistsRegister[_idArtist].owner==msg.sender);\r\n\t\tartistsRegister[_idArtist].name=_name;\r\n\t\tartistsRegister[_idArtist].artistCategory=_artistCategory;\r\n\t\tartistsRegister[_idArtist].owner=_owner;\r\n\r\n\t}\r\n\t\r\n\r\n\tstruct Venue{\r\n\r\n\t\tbytes32 name;\r\n\t\tuint capacity;\r\n\t\tuint standardComission;\r\n\t\taddress payable owner;\r\n\t}\r\n\r\n\tmapping (uint => Venue) public venuesRegister;\r\n\r\n\tfunction createVenue(bytes32 _name, uint _capacity,uint _standardComission) public\r\n\t{\r\n\t\tvenuesRegister[NextIdVenue].name=_name;\r\n\t\tvenuesRegister[NextIdVenue].capacity=_capacity;\r\n\t\tvenuesRegister[NextIdVenue].standardComission=_standardComission;\r\n\t\tvenuesRegister[NextIdVenue].owner=msg.sender;\r\n\t\tNextIdVenue++;\r\n\r\n\t}\r\n\r\n\r\n\tfunction modifyVenue(uint _idVenue,bytes32 _name, uint _capacity, uint _standardComission,address payable _owner) public\r\n\t{\r\n\t\trequire(venuesRegister[_idVenue].owner==msg.sender);\r\n\t\tvenuesRegister[_idVenue].name=_name;\r\n\t\tvenuesRegister[_idVenue].capacity=_capacity;\r\n\t\tvenuesRegister[_idVenue].standardComission=_standardComission;\r\n\t\tvenuesRegister[_idVenue].owner=_owner;\r\n\t}\r\n\r\n\r\n\r\nstruct Concert{\r\n  uint artistId;\r\n  uint venueId;\r\n  uint concertDate;\r\n  uint nbrTickets;\r\n  uint concertPrice;\r\n  address payable owner;\r\n  bool validatedByArtist;\r\n  bool validatedByVenue;\r\n  uint totalSoldTicket;\r\n  uint totalMoneyCollected;\r\n\r\n  }\r\n\r\n  mapping (uint=> Concert) public concertsRegister;\r\n\r\n  function createConcert(uint _artistId, uint _venueId, uint _concertDate, uint _concertPrice)\r\n  public\r\n  returns (uint concertNumber)\r\n  {\r\n    require(_concertDate >= now);\r\n    require(artistsRegister[_artistId].owner != address(0));\r\n    require(venuesRegister[_venueId].owner != address(0));\r\n    concertsRegister[NextIdConcert].totalSoldTicket=0;\r\n    concertsRegister[NextIdConcert].totalMoneyCollected=0;\r\n    concertsRegister[NextIdConcert].concertDate = _concertDate;\r\n    concertsRegister[NextIdConcert].artistId = _artistId;\r\n    concertsRegister[NextIdConcert].venueId = _venueId;\r\n    concertsRegister[NextIdConcert].concertPrice = _concertPrice;\r\n    validateConcert(NextIdConcert);\r\n    concertNumber = NextIdConcert;\r\n    NextIdConcert +=1;\r\n  }\r\n\r\n\r\nfunction validateConcert(uint _concertId)\r\n  public\r\n  {\r\n    require(concertsRegister[_concertId].concertDate >= now);\r\n    if (venuesRegister[concertsRegister[_concertId].venueId].owner == msg.sender)\r\n    {\r\n      concertsRegister[_concertId].validatedByVenue = true;\r\n    }\r\n    if (artistsRegister[concertsRegister[_concertId].artistId].owner == msg.sender)\r\n    {\r\n      concertsRegister[_concertId].validatedByArtist = true;\r\n    }\r\n  }\r\n\r\n\r\n  struct Ticket{\r\n  \taddress payable owner;\r\n  \tbool isAvailable;\r\n  \tuint concertId;\r\n  \tbool isAvailableForSale;\r\n  \tuint amountPaid;\r\n  \tuint salePrice;\r\n  }\r\n\r\n  mapping (uint => Ticket) public ticketsRegister;\r\n  \r\n\r\n function emitTicket(uint _concertId, address payable _ticketOwner) public\r\n  {\r\n  \trequire(msg.sender==artistsRegister[concertsRegister[_concertId].artistId].owner);\r\n  \t\r\n  \tticketsRegister[NextIdTicket].concertId=_concertId;\r\n  \tticketsRegister[NextIdTicket].isAvailable=true;\r\n  \tticketsRegister[NextIdTicket].owner=_ticketOwner;\r\n  \tticketsRegister[NextIdTicket].isAvailableForSale=true;\r\n  \tticketsRegister[NextIdTicket].amountPaid=concertsRegister[_concertId].concertPrice;\r\n  \tconcertsRegister[_concertId].totalSoldTicket++;\r\n  \tNextIdTicket++;\r\n\r\n  }\r\n\r\n  function useTicket(uint _ticketId) public\r\n  {\r\n  \trequire(msg.sender==ticketsRegister[_ticketId].owner);\r\n  \trequire(concertsRegister[ticketsRegister[_ticketId].concertId].concertDate>now);\r\n  \trequire(concertsRegister[ticketsRegister[_ticketId].concertId].concertDate<now+24*60*60);\r\n  \trequire(concertsRegister[ticketsRegister[_ticketId].concertId].validatedByArtist==true);\r\n  \trequire(concertsRegister[ticketsRegister[_ticketId].concertId].validatedByVenue==true);\r\n  \tticketsRegister[_ticketId].isAvailable=false;\r\n  \tticketsRegister[_ticketId].owner=address(0);  \t\r\n\r\n  }\r\n\r\n\r\n  function buyTicket(uint _concertId)  payable public\r\n  {\r\n\r\n  \trequire (msg.value==concertsRegister[_concertId].concertPrice);\r\n  \tconcertsRegister[_concertId].totalSoldTicket++;\r\n  \tconcertsRegister[_concertId].totalMoneyCollected+=msg.value;\r\n  \tticketsRegister[NextIdTicket].owner=msg.sender;\r\n  \tticketsRegister[NextIdTicket].amountPaid=msg.value;\r\n  \tticketsRegister[NextIdTicket].concertId=_concertId;\r\n  \tticketsRegister[NextIdTicket].isAvailable=true;\r\n  \tticketsRegister[NextIdTicket].isAvailableForSale=false;\r\n  \tNextIdTicket++;\r\n\r\n  }\r\n\r\n\r\n  function transferTicket(uint _ticketId, address payable _newOwner) public\r\n  {\r\n  \trequire(msg.sender==ticketsRegister[_ticketId].owner);\r\n  \tticketsRegister[_ticketId].owner=_newOwner;\r\n  }\r\n\r\n\r\n  function cashOutConcert(uint _concertId, address payable _cashOutAddress)  public{\r\n  \t\trequire(concertsRegister[_concertId].concertDate<now);\r\n  \t\trequire(msg.sender==artistsRegister[concertsRegister[_concertId].artistId].owner);\r\n\r\n  \t\tuint totalTicketSale = 2*concertsRegister[_concertId].concertPrice;\r\n  \t\tuint venueShare = totalTicketSale * venuesRegister[concertsRegister[_concertId].venueId].standardComission / 10000;\r\n  \t\tuint artistShare= totalTicketSale - venueShare;\r\n\r\n  \t\tvenuesRegister[concertsRegister[_concertId].venueId].owner.transfer(venueShare);\r\n  \t\t_cashOutAddress.transfer(artistShare);\r\n\r\n  \t\tartistsRegister[concertsRegister[_concertId].artistId].totalTicketSold+=concertsRegister[_concertId].totalSoldTicket;\r\n\r\n\r\n  }\r\n\r\n\r\n\r\n  function offerTicketForSale(uint _ticketId, uint _salePrice) public {\r\n\r\n\r\n  \trequire (msg.sender==ticketsRegister[_ticketId].owner);\r\n  \trequire(ticketsRegister[_ticketId].amountPaid>=_salePrice);\r\n  \tticketsRegister[_ticketId].isAvailableForSale=true;\r\n  \tticketsRegister[_ticketId].salePrice=_salePrice;\r\n\r\n  }\r\n\r\n  function buySecondHandTicket(uint _ticketId) payable public {\r\n  \trequire(ticketsRegister[_ticketId].isAvailableForSale==true);\r\n  \trequire(msg.value==ticketsRegister[_ticketId].salePrice);\r\n\r\n  \trequire(ticketsRegister[_ticketId].amountPaid>=msg.value);\r\n  \trequire(ticketsRegister[_ticketId].isAvailable==true);\r\n\r\n  \tticketsRegister[_ticketId].owner.transfer(msg.value);\r\n  \tticketsRegister[_ticketId].owner=msg.sender;\r\n  }\r\n\r\n\r\n\r\n\r\n\r\n}\r\n\r\n",
  "sourcePath": "C:/Users/cleme/Desktop/A4/S8/Blockchain_Programming/TDs/TD7/contracts/ticketingSystem.sol",
  "compiler": {
    "name": "solc",
    "version": "0.5.0+commit.1d4f565a.Emscripten.clang"
  },
  "schemaVersion": "3.0.5",
  "updatedAt": "2019-03-23T21:40:42.714Z",
  "devdoc": {
    "methods": {}
  },
  "userdoc": {
    "methods": {}
  }
}